{
  "contractName": "DeCAPTCHA",
  "abi": [
    {
      "constant": false,
      "inputs": [
        {
          "name": "question",
          "type": "string"
        },
        {
          "name": "ipfsHash",
          "type": "string"
        }
      ],
      "name": "submitProblem",
      "outputs": [],
      "payable": true,
      "stateMutability": "payable",
      "type": "function"
    },
    {
      "constant": false,
      "inputs": [
        {
          "name": "problemID",
          "type": "uint256"
        },
        {
          "name": "answer",
          "type": "string"
        },
        {
          "name": "rewardAddress",
          "type": "address"
        }
      ],
      "name": "answerQuestion",
      "outputs": [],
      "payable": false,
      "stateMutability": "nonpayable",
      "type": "function"
    },
    {
      "constant": false,
      "inputs": [
        {
          "name": "problemID",
          "type": "uint256"
        }
      ],
      "name": "deactivateProblem",
      "outputs": [],
      "payable": false,
      "stateMutability": "nonpayable",
      "type": "function"
    },
    {
      "constant": true,
      "inputs": [],
      "name": "owner",
      "outputs": [
        {
          "name": "",
          "type": "address"
        }
      ],
      "payable": false,
      "stateMutability": "view",
      "type": "function"
    },
    {
      "constant": false,
      "inputs": [
        {
          "name": "newOwner",
          "type": "address"
        }
      ],
      "name": "transferOwnership",
      "outputs": [],
      "payable": false,
      "stateMutability": "nonpayable",
      "type": "function"
    },
    {
      "anonymous": false,
      "inputs": [
        {
          "indexed": true,
          "name": "previousOwner",
          "type": "address"
        },
        {
          "indexed": true,
          "name": "newOwner",
          "type": "address"
        }
      ],
      "name": "OwnershipTransferred",
      "type": "event"
    }
  ],
  "bytecode": "0x6060604052336000806101000a81548173ffffffffffffffffffffffffffffffffffffffff021916908373ffffffffffffffffffffffffffffffffffffffff160217905550610e57806100536000396000f30060606040526004361061006d576000357c0100000000000000000000000000000000000000000000000000000000900463ffffffff1680632c0f2bc514610072578063401dfe01146101075780634861e22b1461018c5780638da5cb5b146101af578063f2fde38b14610204575b600080fd5b610105600480803590602001908201803590602001908080601f0160208091040260200160405190810160405280939291908181526020018383808284378201915050505050509190803590602001908201803590602001908080601f0160208091040260200160405190810160405280939291908181526020018383808284378201915050505050509190505061023d565b005b341561011257600080fd5b61018a600480803590602001909190803590602001908201803590602001908080601f0160208091040260200160405190810160405280939291908181526020018383808284378201915050505050509190803573ffffffffffffffffffffffffffffffffffffffff16906020019091905050610603565b005b341561019757600080fd5b6101ad6004808035906020019091905050610a04565b005b34156101ba57600080fd5b6101c2610adb565b604051808273ffffffffffffffffffffffffffffffffffffffff1673ffffffffffffffffffffffffffffffffffffffff16815260200191505060405180910390f35b341561020f57600080fd5b61023b600480803573ffffffffffffffffffffffffffffffffffffffff16906020019091905050610b00565b005b610245610d58565b600360009054906101000a900460ff1615806102aa5750600460003373ffffffffffffffffffffffffffffffffffffffff1673ffffffffffffffffffffffffffffffffffffffff16815260200190815260200160002060009054906101000a900460ff165b15156102b557600080fd5b600160006002548152602001908152602001600020610100604051908101604052908160008201805480602002602001604051908101604052809291908181526020016000905b828210156103a1578382906000526020600020906003020160606040519081016040529081600082015460001916600019168152602001600182015481526020016002820160009054906101000a900473ffffffffffffffffffffffffffffffffffffffff1673ffffffffffffffffffffffffffffffffffffffff1673ffffffffffffffffffffffffffffffffffffffff1681525050815260200190600101906102fc565b50505050815260200160018201548152602001600282015481526020016003820160009054906101000a900473ffffffffffffffffffffffffffffffffffffffff1673ffffffffffffffffffffffffffffffffffffffff1673ffffffffffffffffffffffffffffffffffffffff16815260200160048201548152602001600582018054600181600116156101000203166002900480601f0160208091040260200160405190810160405280929190818152602001828054600181600116156101000203166002900480156104b65780601f1061048b576101008083540402835291602001916104b6565b820191906000526020600020905b81548152906001019060200180831161049957829003601f168201915b50505050508152602001600682018054600181600116156101000203166002900480601f0160208091040260200160405190810160405280929190818152602001828054600181600116156101000203166002900480156105585780601f1061052d57610100808354040283529160200191610558565b820191906000526020600020905b81548152906001019060200180831161053b57829003601f168201915b505050505081526020016007820160009054906101000a900460ff161515151581525050905042816040018181525050828160a00181905250818160c0018190525033816060019073ffffffffffffffffffffffffffffffffffffffff16908173ffffffffffffffffffffffffffffffffffffffff16815250503481608001818152505060018160e00190151590811515815250506001600260008282540192505081905550505050565b600080846001600082815260200190815260200160002060070160009054906101000a900460ff16151561063657600080fd5b60016000878152602001908152602001600020925082600001836000018054905081548110151561066357fe5b9060005260206000209060030201915042826001018190555061068a858360010154610c55565b826000018160001916905550338260020160006101000a81548173ffffffffffffffffffffffffffffffffffffffff021916908373ffffffffffffffffffffffffffffffffffffffff16021790555061099583610100604051908101604052908160008201805480602002602001604051908101604052809291908181526020016000905b828210156107b4578382906000526020600020906003020160606040519081016040529081600082015460001916600019168152602001600182015481526020016002820160009054906101000a900473ffffffffffffffffffffffffffffffffffffffff1673ffffffffffffffffffffffffffffffffffffffff1673ffffffffffffffffffffffffffffffffffffffff16815250508152602001906001019061070f565b50505050815260200160018201548152602001600282015481526020016003820160009054906101000a900473ffffffffffffffffffffffffffffffffffffffff1673ffffffffffffffffffffffffffffffffffffffff1673ffffffffffffffffffffffffffffffffffffffff16815260200160048201548152602001600582018054600181600116156101000203166002900480601f0160208091040260200160405190810160405280929190818152602001828054600181600116156101000203166002900480156108c95780601f1061089e576101008083540402835291602001916108c9565b820191906000526020600020905b8154815290600101906020018083116108ac57829003601f168201915b50505050508152602001600682018054600181600116156101000203166002900480601f01602080910402602001604051908101604052809291908181526020018280546001816001161561010002031660029004801561096b5780601f106109405761010080835404028352916020019161096b565b820191906000526020600020905b81548152906001019060200180831161094e57829003601f168201915b505050505081526020016007820160009054906101000a900460ff16151515158152505086610cca565b156109fc5760008360070160006101000a81548160ff0219169083151502179055508373ffffffffffffffffffffffffffffffffffffffff166108fc84600401549081150290604051600060405180830381858888f1935050505015156109fb57600080fd5b5b505050505050565b806001600082815260200190815260200160002060070160009054906101000a900460ff161515610a3457600080fd5b813373ffffffffffffffffffffffffffffffffffffffff166001600083815260200190815260200160002060030160009054906101000a900473ffffffffffffffffffffffffffffffffffffffff1673ffffffffffffffffffffffffffffffffffffffff16141515610aa557600080fd5b600060016000600254815260200190815260200160002060070160006101000a81548160ff021916908315150217905550505050565b6000809054906101000a900473ffffffffffffffffffffffffffffffffffffffff1681565b6000809054906101000a900473ffffffffffffffffffffffffffffffffffffffff1673ffffffffffffffffffffffffffffffffffffffff163373ffffffffffffffffffffffffffffffffffffffff16141515610b5b57600080fd5b600073ffffffffffffffffffffffffffffffffffffffff168173ffffffffffffffffffffffffffffffffffffffff1614151515610b9757600080fd5b8073ffffffffffffffffffffffffffffffffffffffff166000809054906101000a900473ffffffffffffffffffffffffffffffffffffffff1673ffffffffffffffffffffffffffffffffffffffff167f8be0079c531659141344cd1fd0a4f28419497f9722a3daafe3b4186f6b6457e060405160405180910390a3806000806101000a81548173ffffffffffffffffffffffffffffffffffffffff021916908373ffffffffffffffffffffffffffffffffffffffff16021790555050565b600082826040518083805190602001908083835b602083101515610c8e5780518252602082019150602081019050602083039250610c69565b6001836020036101000a038019825116818451168082178552505050505050905001828152602001925050506040518091039020905092915050565b600080600080610cd8610dc8565b600093508660000151519250600091505b82821015610d4457866000015182815181101515610d0357fe5b906020019060200201519050610d1d868260200151610c55565b600019168160000151600019161415610d37576001840193505b8180600101925050610ce9565b866020015184101594505050505092915050565b61010060405190810160405280610d6d610e03565b81526020016000815260200160008152602001600073ffffffffffffffffffffffffffffffffffffffff16815260200160008152602001610dac610e17565b8152602001610db9610e17565b81526020016000151581525090565b6060604051908101604052806000801916815260200160008152602001600073ffffffffffffffffffffffffffffffffffffffff1681525090565b602060405190810160405280600081525090565b6020604051908101604052806000815250905600a165627a7a72305820e26d9cc7a47b991d0a047600bb4c412ea3cb9916bbe887f8cc4cd97216bd4cca0029",
  "source": "pragma solidity ^0.4.4;\nimport \"zeppelin-solidity/contracts/ownership/Ownable.sol\";\n\ncontract DeCAPTCHA is Ownable {\n\n\tstruct Answer {\n\t\t// hash of the user's response\n\t\tbytes32 answerHash;\n\n\t\t// when the answer was submitted\n\t\tuint256 timestamp;\n\n\t\t// who submitted the answer\n\t\taddress creator;\n\t}\n\n\tstruct Problem {\n\t\tAnswer[] answers;\n\n\t\t// how many agreeing responses are required\n\t\tuint requiredAgreement;\n\n\t\t// when was the problem made\n\t\tuint256 timestamp;\n\n\t\t// who made the problem\n\t\taddress creator;\n\n\t\t// reward for solving the problem\n\t\tuint256 reward;\n\n\t\t// question associated with the problem\n\t\tstring question;\n\n\t\t// IPFS document associated with the problem\n\t\tstring ipfsHash;\n\n\t\t// is the problem still active?\n\t\tbool active;\n\t}\n\n\tmapping (uint256 => Problem) problems;\n\tuint256 numQuestions;\n\n\tbool useWhitelist;\n\tmapping (address => bool) whitelist;\n\n\tmodifier whitelisted() {\n\t\trequire(!useWhitelist || whitelist[msg.sender]);\n\t\t_;\n\t}\n\n    modifier activeProblem(uint256 problemID) {\n        require(problems[problemID].active);\n        _;\n    }\n\n    modifier problemOwner(uint256 problemID) {\n        require(problems[problemID].creator == msg.sender);\n        _;\n    }\n\n    function hashAnswer(string answer, uint256 timestamp)\n    \tinternal\n    \tpure\n    \treturns (bytes32)\n    {\n    \treturn keccak256(answer, timestamp);\n    }\n\n\tfunction submitProblem(string question, string ipfsHash)\n\t\tpublic\n\t\twhitelisted()\n\t\tpayable\n\t{\n\t\t// initialize the new problem\n\t\tProblem memory prob = problems[numQuestions];\n\n\t\t// set properties on the problem\n\t\tprob.timestamp = now;\n\t\tprob.question = question;\n\t\tprob.ipfsHash = ipfsHash;\n\t\tprob.creator = msg.sender;\n\t\tprob.reward = msg.value;\n\t\tprob.active = true;\n\n\t\t// increment the number of questions\n\t\t// that we have stored\n\t\tnumQuestions += 1;\n\t}\n\n\tfunction deactivateProblem(uint256 problemID)\n\t\tpublic\n\t\tactiveProblem(problemID)\n\t\tproblemOwner(problemID)\n\t{\n\t\tproblems[numQuestions].active = false;\n\t}\n\n\t// tries to collect the reward on the problem on behalf of the\n\t// message sender\n\tfunction solvedProblem(Problem problem, string answer)\n\t\tinternal\n\t\tpure\n\t\treturns (bool)\n\t{\n\t\tuint agreement = 0;\n\n\t\tuint numAnswers = problem.answers.length;\n\t\tfor (uint i = 0; i < numAnswers; i++) {\n\n\t\t\tAnswer memory otherAnswer = problem.answers[i];\n\n\t\t\t// do the answers match?\n\t\t\tif (otherAnswer.answerHash == hashAnswer(answer, otherAnswer.timestamp)) {\n\t\t\t\tagreement += 1;\n\t\t\t}\n\t\t}\n\n\t\t// determine whether or not a sufficient number of\n\t\t// answers agree with you\n\t\treturn (agreement >= problem.requiredAgreement);\n\t}\n\n\tfunction answerQuestion(uint256 problemID, string answer, address rewardAddress)\n\t\tpublic\n\t\tactiveProblem(problemID)\n\t{\n\n\t\t// initialize the empty answer\n\t\tProblem storage prob = problems[problemID];\n\t\tAnswer storage answerStruct = prob.answers[prob.answers.length];\n\n\t\t// set properties on the answer\n\t\tanswerStruct.timestamp = now;\n\t\tanswerStruct.answerHash = hashAnswer(answer, answerStruct.timestamp);\n\t\tanswerStruct.creator = msg.sender;\n\n\t\t// check if we can collect the reward\n\t\tif (solvedProblem(prob, answer)) {\n\t\t\tprob.active = false;\n\t\t\trewardAddress.transfer(prob.reward);\n\t\t}\n\t}\n\n}",
  "sourcePath": "/Users/leohentschker/de-captcha/crypto/contracts/DeCAPTCHA.sol",
  "schemaVersion": "1.0.0",
  "updatedAt": "2017-12-02T19:55:43.478Z"
}